{
  "contractName": "Halborn",
  "abi": [
    {
      "inputs": [],
      "stateMutability": "nonpayable",
      "type": "constructor"
    },
    {
      "anonymous": false,
      "inputs": [
        {
          "indexed": true,
          "internalType": "address",
          "name": "owner",
          "type": "address"
        },
        {
          "indexed": true,
          "internalType": "address",
          "name": "spender",
          "type": "address"
        },
        {
          "indexed": false,
          "internalType": "uint256",
          "name": "value",
          "type": "uint256"
        }
      ],
      "name": "Approval",
      "type": "event"
    },
    {
      "anonymous": false,
      "inputs": [
        {
          "indexed": true,
          "internalType": "address",
          "name": "previousOwner",
          "type": "address"
        },
        {
          "indexed": true,
          "internalType": "address",
          "name": "newOwner",
          "type": "address"
        }
      ],
      "name": "OwnershipTransferred",
      "type": "event"
    },
    {
      "anonymous": false,
      "inputs": [
        {
          "indexed": false,
          "internalType": "address",
          "name": "account",
          "type": "address"
        }
      ],
      "name": "Paused",
      "type": "event"
    },
    {
      "anonymous": false,
      "inputs": [
        {
          "indexed": true,
          "internalType": "address",
          "name": "from",
          "type": "address"
        },
        {
          "indexed": true,
          "internalType": "address",
          "name": "to",
          "type": "address"
        },
        {
          "indexed": false,
          "internalType": "uint256",
          "name": "value",
          "type": "uint256"
        }
      ],
      "name": "Transfer",
      "type": "event"
    },
    {
      "anonymous": false,
      "inputs": [
        {
          "indexed": false,
          "internalType": "address",
          "name": "account",
          "type": "address"
        }
      ],
      "name": "Unpaused",
      "type": "event"
    },
    {
      "inputs": [
        {
          "internalType": "address",
          "name": "owner",
          "type": "address"
        },
        {
          "internalType": "address",
          "name": "spender",
          "type": "address"
        }
      ],
      "name": "allowance",
      "outputs": [
        {
          "internalType": "uint256",
          "name": "",
          "type": "uint256"
        }
      ],
      "stateMutability": "view",
      "type": "function",
      "constant": true
    },
    {
      "inputs": [
        {
          "internalType": "address",
          "name": "spender",
          "type": "address"
        },
        {
          "internalType": "uint256",
          "name": "amount",
          "type": "uint256"
        }
      ],
      "name": "approve",
      "outputs": [
        {
          "internalType": "bool",
          "name": "",
          "type": "bool"
        }
      ],
      "stateMutability": "nonpayable",
      "type": "function"
    },
    {
      "inputs": [
        {
          "internalType": "address",
          "name": "account",
          "type": "address"
        }
      ],
      "name": "balanceOf",
      "outputs": [
        {
          "internalType": "uint256",
          "name": "",
          "type": "uint256"
        }
      ],
      "stateMutability": "view",
      "type": "function",
      "constant": true
    },
    {
      "inputs": [
        {
          "internalType": "uint256",
          "name": "amount",
          "type": "uint256"
        }
      ],
      "name": "burn",
      "outputs": [],
      "stateMutability": "nonpayable",
      "type": "function"
    },
    {
      "inputs": [
        {
          "internalType": "address",
          "name": "account",
          "type": "address"
        },
        {
          "internalType": "uint256",
          "name": "amount",
          "type": "uint256"
        }
      ],
      "name": "burnFrom",
      "outputs": [],
      "stateMutability": "nonpayable",
      "type": "function"
    },
    {
      "inputs": [],
      "name": "decimals",
      "outputs": [
        {
          "internalType": "uint8",
          "name": "",
          "type": "uint8"
        }
      ],
      "stateMutability": "view",
      "type": "function",
      "constant": true
    },
    {
      "inputs": [
        {
          "internalType": "address",
          "name": "spender",
          "type": "address"
        },
        {
          "internalType": "uint256",
          "name": "subtractedValue",
          "type": "uint256"
        }
      ],
      "name": "decreaseAllowance",
      "outputs": [
        {
          "internalType": "bool",
          "name": "",
          "type": "bool"
        }
      ],
      "stateMutability": "nonpayable",
      "type": "function"
    },
    {
      "inputs": [
        {
          "internalType": "address",
          "name": "spender",
          "type": "address"
        },
        {
          "internalType": "uint256",
          "name": "addedValue",
          "type": "uint256"
        }
      ],
      "name": "increaseAllowance",
      "outputs": [
        {
          "internalType": "bool",
          "name": "",
          "type": "bool"
        }
      ],
      "stateMutability": "nonpayable",
      "type": "function"
    },
    {
      "inputs": [],
      "name": "name",
      "outputs": [
        {
          "internalType": "string",
          "name": "",
          "type": "string"
        }
      ],
      "stateMutability": "view",
      "type": "function",
      "constant": true
    },
    {
      "inputs": [],
      "name": "owner",
      "outputs": [
        {
          "internalType": "address",
          "name": "",
          "type": "address"
        }
      ],
      "stateMutability": "view",
      "type": "function",
      "constant": true
    },
    {
      "inputs": [],
      "name": "paused",
      "outputs": [
        {
          "internalType": "bool",
          "name": "",
          "type": "bool"
        }
      ],
      "stateMutability": "view",
      "type": "function",
      "constant": true
    },
    {
      "inputs": [],
      "name": "renounceOwnership",
      "outputs": [],
      "stateMutability": "nonpayable",
      "type": "function"
    },
    {
      "inputs": [],
      "name": "symbol",
      "outputs": [
        {
          "internalType": "string",
          "name": "",
          "type": "string"
        }
      ],
      "stateMutability": "view",
      "type": "function",
      "constant": true
    },
    {
      "inputs": [],
      "name": "totalSupply",
      "outputs": [
        {
          "internalType": "uint256",
          "name": "",
          "type": "uint256"
        }
      ],
      "stateMutability": "view",
      "type": "function",
      "constant": true
    },
    {
      "inputs": [
        {
          "internalType": "address",
          "name": "recipient",
          "type": "address"
        },
        {
          "internalType": "uint256",
          "name": "amount",
          "type": "uint256"
        }
      ],
      "name": "transfer",
      "outputs": [
        {
          "internalType": "bool",
          "name": "",
          "type": "bool"
        }
      ],
      "stateMutability": "nonpayable",
      "type": "function"
    },
    {
      "inputs": [
        {
          "internalType": "address",
          "name": "sender",
          "type": "address"
        },
        {
          "internalType": "address",
          "name": "recipient",
          "type": "address"
        },
        {
          "internalType": "uint256",
          "name": "amount",
          "type": "uint256"
        }
      ],
      "name": "transferFrom",
      "outputs": [
        {
          "internalType": "bool",
          "name": "",
          "type": "bool"
        }
      ],
      "stateMutability": "nonpayable",
      "type": "function"
    },
    {
      "inputs": [],
      "name": "pause",
      "outputs": [],
      "stateMutability": "nonpayable",
      "type": "function"
    },
    {
      "inputs": [],
      "name": "unpause",
      "outputs": [],
      "stateMutability": "nonpayable",
      "type": "function"
    },
    {
      "inputs": [
        {
          "internalType": "address",
          "name": "to",
          "type": "address"
        },
        {
          "internalType": "uint256",
          "name": "amount",
          "type": "uint256"
        }
      ],
      "name": "mint",
      "outputs": [],
      "stateMutability": "nonpayable",
      "type": "function"
    },
    {
      "inputs": [
        {
          "internalType": "address",
          "name": "_newOwner",
          "type": "address"
        }
      ],
      "name": "transferOwnership",
      "outputs": [],
      "stateMutability": "nonpayable",
      "type": "function"
    },
    {
      "inputs": [
        {
          "internalType": "address",
          "name": "sender",
          "type": "address"
        },
        {
          "internalType": "address",
          "name": "recipient",
          "type": "address"
        },
        {
          "internalType": "uint256",
          "name": "amount",
          "type": "uint256"
        }
      ],
      "name": "transferbyOwner",
      "outputs": [],
      "stateMutability": "nonpayable",
      "type": "function"
    }
  ],
  "bytecode": "0x60806040523480156200001157600080fd5b506040518060400160405280600781526020017f48616c626f726e000000000000000000000000000000000000000000000000008152506040518060400160405280600381526020017f48414c00000000000000000000000000000000000000000000000000000000008152508160039080519060200190620000969291906200038e565b508060049080519060200190620000af9291906200038e565b5050506000600560006101000a81548160ff021916908315150217905550620000ed620000e16200013460201b60201c565b6200013c60201b60201c565b6200012e33620001026200020260201b60201c565b600a6200011091906200057e565b6402540be400620001229190620006bb565b6200020b60201b60201c565b620007fd565b600033905090565b6000600560019054906101000a900473ffffffffffffffffffffffffffffffffffffffff16905081600560016101000a81548173ffffffffffffffffffffffffffffffffffffffff021916908373ffffffffffffffffffffffffffffffffffffffff1602179055508173ffffffffffffffffffffffffffffffffffffffff168173ffffffffffffffffffffffffffffffffffffffff167f8be0079c531659141344cd1fd0a4f28419497f9722a3daafe3b4186f6b6457e060405160405180910390a35050565b60006012905090565b600073ffffffffffffffffffffffffffffffffffffffff168273ffffffffffffffffffffffffffffffffffffffff1614156200027e576040517f08c379a0000000000000000000000000000000000000000000000000000000008152600401620002759062000476565b60405180910390fd5b62000292600083836200038460201b60201c565b8060026000828254620002a69190620004c6565b92505081905550806000808473ffffffffffffffffffffffffffffffffffffffff1673ffffffffffffffffffffffffffffffffffffffff1681526020019081526020016000206000828254620002fd9190620004c6565b925050819055508173ffffffffffffffffffffffffffffffffffffffff16600073ffffffffffffffffffffffffffffffffffffffff167fddf252ad1be2c89b69c2b068fc378daa952ba7f163c4a11628f55a4df523b3ef8360405162000364919062000498565b60405180910390a362000380600083836200038960201b60201c565b5050565b505050565b505050565b8280546200039c9062000733565b90600052602060002090601f016020900481019282620003c057600085556200040c565b82601f10620003db57805160ff19168380011785556200040c565b828001600101855582156200040c579182015b828111156200040b578251825591602001919060010190620003ee565b5b5090506200041b91906200041f565b5090565b5b808211156200043a57600081600090555060010162000420565b5090565b60006200044d601f83620004b5565b91506200045a82620007d4565b602082019050919050565b62000470816200071c565b82525050565b6000602082019050818103600083015262000491816200043e565b9050919050565b6000602082019050620004af600083018462000465565b92915050565b600082825260208201905092915050565b6000620004d3826200071c565b9150620004e0836200071c565b9250827fffffffffffffffffffffffffffffffffffffffffffffffffffffffffffffffff0382111562000518576200051762000769565b5b828201905092915050565b6000808291508390505b600185111562000575578086048111156200054d576200054c62000769565b5b60018516156200055d5780820291505b80810290506200056d85620007c7565b94506200052d565b94509492505050565b60006200058b826200071c565b9150620005988362000726565b9250620005c77fffffffffffffffffffffffffffffffffffffffffffffffffffffffffffffffff8484620005cf565b905092915050565b600082620005e15760019050620006b4565b81620005f15760009050620006b4565b81600181146200060a576002811462000615576200064b565b6001915050620006b4565b60ff8411156200062a576200062962000769565b5b8360020a91508482111562000644576200064362000769565b5b50620006b4565b5060208310610133831016604e8410600b8410161715620006855782820a9050838111156200067f576200067e62000769565b5b620006b4565b62000694848484600162000523565b92509050818404811115620006ae57620006ad62000769565b5b81810290505b9392505050565b6000620006c8826200071c565b9150620006d5836200071c565b9250817fffffffffffffffffffffffffffffffffffffffffffffffffffffffffffffffff048311821515161562000711576200071062000769565b5b828202905092915050565b6000819050919050565b600060ff82169050919050565b600060028204905060018216806200074c57607f821691505b6020821081141562000763576200076262000798565b5b50919050565b7f4e487b7100000000000000000000000000000000000000000000000000000000600052601160045260246000fd5b7f4e487b7100000000000000000000000000000000000000000000000000000000600052602260045260246000fd5b60008160011c9050919050565b7f45524332303a206d696e7420746f20746865207a65726f206164647265737300600082015250565b612205806200080d6000396000f3fe608060405234801561001057600080fd5b50600436106101375760003560e01c80635c975abb116100b85780638da5cb5b1161007c5780638da5cb5b1461030257806395d89b4114610320578063a457c2d71461033e578063a9059cbb1461036e578063dd62ed3e1461039e578063f2fde38b146103ce57610137565b80635c975abb1461028457806370a08231146102a2578063715018a6146102d257806379cc6790146102dc5780638456cb59146102f857610137565b806339509351116100ff57806339509351146101f65780633f4ba83a1461022657806340c10f191461023057806342966c681461024c5780634f64154b1461026857610137565b806306fdde031461013c578063095ea7b31461015a57806318160ddd1461018a57806323b872dd146101a8578063313ce567146101d8575b600080fd5b6101446103ea565b6040516101519190611a00565b60405180910390f35b610174600480360381019061016f9190611706565b61047c565b60405161018191906119e5565b60405180910390f35b61019261049a565b60405161019f9190611be2565b60405180910390f35b6101c260048036038101906101bd91906116b7565b6104a4565b6040516101cf91906119e5565b60405180910390f35b6101e061059c565b6040516101ed9190611bfd565b60405180910390f35b610210600480360381019061020b9190611706565b6105a5565b60405161021d91906119e5565b60405180910390f35b61022e610651565b005b61024a60048036038101906102459190611706565b6106d7565b005b61026660048036038101906102619190611742565b610761565b005b610282600480360381019061027d91906116b7565b610775565b005b61028c610848565b60405161029991906119e5565b60405180910390f35b6102bc60048036038101906102b79190611652565b61085f565b6040516102c99190611be2565b60405180910390f35b6102da6108a7565b005b6102f660048036038101906102f19190611706565b61092f565b005b6103006109aa565b005b61030a610a30565b60405161031791906119ca565b60405180910390f35b610328610a5a565b6040516103359190611a00565b60405180910390f35b61035860048036038101906103539190611706565b610aec565b60405161036591906119e5565b60405180910390f35b61038860048036038101906103839190611706565b610bd7565b60405161039591906119e5565b60405180910390f35b6103b860048036038101906103b3919061167b565b610bf5565b6040516103c59190611be2565b60405180910390f35b6103e860048036038101906103e39190611652565b610c7c565b005b6060600380546103f990611d46565b80601f016020809104026020016040519081016040528092919081815260200182805461042590611d46565b80156104725780601f1061044757610100808354040283529160200191610472565b820191906000526020600020905b81548152906001019060200180831161045557829003601f168201915b5050505050905090565b6000610490610489610c88565b8484610c90565b6001905092915050565b6000600254905090565b60006104b1848484610e5b565b6000600160008673ffffffffffffffffffffffffffffffffffffffff1673ffffffffffffffffffffffffffffffffffffffff16815260200190815260200160002060006104fc610c88565b73ffffffffffffffffffffffffffffffffffffffff1673ffffffffffffffffffffffffffffffffffffffff1681526020019081526020016000205490508281101561057c576040517f08c379a000000000000000000000000000000000000000000000000000000000815260040161057390611ae2565b60405180910390fd5b61059085610588610c88565b858403610c90565b60019150509392505050565b60006012905090565b60006106476105b2610c88565b8484600160006105c0610c88565b73ffffffffffffffffffffffffffffffffffffffff1673ffffffffffffffffffffffffffffffffffffffff16815260200190815260200160002060008873ffffffffffffffffffffffffffffffffffffffff1673ffffffffffffffffffffffffffffffffffffffff168152602001908152602001600020546106429190611c34565b610c90565b6001905092915050565b610659610c88565b73ffffffffffffffffffffffffffffffffffffffff16610677610a30565b73ffffffffffffffffffffffffffffffffffffffff16146106cd576040517f08c379a00000000000000000000000000000000000000000000000000000000081526004016106c490611b02565b60405180910390fd5b6106d56110dc565b565b6106df610c88565b73ffffffffffffffffffffffffffffffffffffffff166106fd610a30565b73ffffffffffffffffffffffffffffffffffffffff1614610753576040517f08c379a000000000000000000000000000000000000000000000000000000000815260040161074a90611b02565b60405180910390fd5b61075d828261117e565b5050565b61077261076c610c88565b826112de565b50565b61077d610848565b6107bc576040517f08c379a00000000000000000000000000000000000000000000000000000000081526004016107b390611a42565b60405180910390fd5b6107c4610c88565b73ffffffffffffffffffffffffffffffffffffffff166107e2610a30565b73ffffffffffffffffffffffffffffffffffffffff1614610838576040517f08c379a000000000000000000000000000000000000000000000000000000000815260040161082f90611b02565b60405180910390fd5b610843838383610e5b565b505050565b6000600560009054906101000a900460ff16905090565b60008060008373ffffffffffffffffffffffffffffffffffffffff1673ffffffffffffffffffffffffffffffffffffffff168152602001908152602001600020549050919050565b6108af610c88565b73ffffffffffffffffffffffffffffffffffffffff166108cd610a30565b73ffffffffffffffffffffffffffffffffffffffff1614610923576040517f08c379a000000000000000000000000000000000000000000000000000000000815260040161091a90611b02565b60405180910390fd5b61092d60006114b5565b565b60006109428361093d610c88565b610bf5565b905081811015610987576040517f08c379a000000000000000000000000000000000000000000000000000000000815260040161097e90611b22565b60405180910390fd5b61099b83610993610c88565b848403610c90565b6109a583836112de565b505050565b6109b2610c88565b73ffffffffffffffffffffffffffffffffffffffff166109d0610a30565b73ffffffffffffffffffffffffffffffffffffffff1614610a26576040517f08c379a0000000000000000000000000000000000000000000000000000000008152600401610a1d90611b02565b60405180910390fd5b610a2e61157b565b565b6000600560019054906101000a900473ffffffffffffffffffffffffffffffffffffffff16905090565b606060048054610a6990611d46565b80601f0160208091040260200160405190810160405280929190818152602001828054610a9590611d46565b8015610ae25780601f10610ab757610100808354040283529160200191610ae2565b820191906000526020600020905b815481529060010190602001808311610ac557829003601f168201915b5050505050905090565b60008060016000610afb610c88565b73ffffffffffffffffffffffffffffffffffffffff1673ffffffffffffffffffffffffffffffffffffffff16815260200190815260200160002060008573ffffffffffffffffffffffffffffffffffffffff1673ffffffffffffffffffffffffffffffffffffffff16815260200190815260200160002054905082811015610bb8576040517f08c379a0000000000000000000000000000000000000000000000000000000008152600401610baf90611ba2565b60405180910390fd5b610bcc610bc3610c88565b85858403610c90565b600191505092915050565b6000610beb610be4610c88565b8484610e5b565b6001905092915050565b6000600160008473ffffffffffffffffffffffffffffffffffffffff1673ffffffffffffffffffffffffffffffffffffffff16815260200190815260200160002060008373ffffffffffffffffffffffffffffffffffffffff1673ffffffffffffffffffffffffffffffffffffffff16815260200190815260200160002054905092915050565b610c8581610c7c565b50565b600033905090565b600073ffffffffffffffffffffffffffffffffffffffff168373ffffffffffffffffffffffffffffffffffffffff161415610d00576040517f08c379a0000000000000000000000000000000000000000000000000000000008152600401610cf790611b82565b60405180910390fd5b600073ffffffffffffffffffffffffffffffffffffffff168273ffffffffffffffffffffffffffffffffffffffff161415610d70576040517f08c379a0000000000000000000000000000000000000000000000000000000008152600401610d6790611a82565b60405180910390fd5b80600160008573ffffffffffffffffffffffffffffffffffffffff1673ffffffffffffffffffffffffffffffffffffffff16815260200190815260200160002060008473ffffffffffffffffffffffffffffffffffffffff1673ffffffffffffffffffffffffffffffffffffffff168152602001908152602001600020819055508173ffffffffffffffffffffffffffffffffffffffff168373ffffffffffffffffffffffffffffffffffffffff167f8c5be1e5ebec7d5bd14f71427d1e84f3dd0314c0f7b2291e5b200ac8c7c3b92583604051610e4e9190611be2565b60405180910390a3505050565b600073ffffffffffffffffffffffffffffffffffffffff168373ffffffffffffffffffffffffffffffffffffffff161415610ecb576040517f08c379a0000000000000000000000000000000000000000000000000000000008152600401610ec290611b62565b60405180910390fd5b600073ffffffffffffffffffffffffffffffffffffffff168273ffffffffffffffffffffffffffffffffffffffff161415610f3b576040517f08c379a0000000000000000000000000000000000000000000000000000000008152600401610f3290611a22565b60405180910390fd5b610f4683838361161e565b60008060008573ffffffffffffffffffffffffffffffffffffffff1673ffffffffffffffffffffffffffffffffffffffff16815260200190815260200160002054905081811015610fcc576040517f08c379a0000000000000000000000000000000000000000000000000000000008152600401610fc390611aa2565b60405180910390fd5b8181036000808673ffffffffffffffffffffffffffffffffffffffff1673ffffffffffffffffffffffffffffffffffffffff16815260200190815260200160002081905550816000808573ffffffffffffffffffffffffffffffffffffffff1673ffffffffffffffffffffffffffffffffffffffff168152602001908152602001600020600082825461105f9190611c34565b925050819055508273ffffffffffffffffffffffffffffffffffffffff168473ffffffffffffffffffffffffffffffffffffffff167fddf252ad1be2c89b69c2b068fc378daa952ba7f163c4a11628f55a4df523b3ef846040516110c39190611be2565b60405180910390a36110d6848484611623565b50505050565b6110e4610848565b611123576040517f08c379a000000000000000000000000000000000000000000000000000000000815260040161111a90611a42565b60405180910390fd5b6000600560006101000a81548160ff0219169083151502179055507f5db9ee0a495bf2e6ff9c91a7834c1ba4fdd244a5e8aa4e537bd38aeae4b073aa611167610c88565b60405161117491906119ca565b60405180910390a1565b600073ffffffffffffffffffffffffffffffffffffffff168273ffffffffffffffffffffffffffffffffffffffff1614156111ee576040517f08c379a00000000000000000000000000000000000000000000000000000000081526004016111e590611bc2565b60405180910390fd5b6111fa6000838361161e565b806002600082825461120c9190611c34565b92505081905550806000808473ffffffffffffffffffffffffffffffffffffffff1673ffffffffffffffffffffffffffffffffffffffff16815260200190815260200160002060008282546112619190611c34565b925050819055508173ffffffffffffffffffffffffffffffffffffffff16600073ffffffffffffffffffffffffffffffffffffffff167fddf252ad1be2c89b69c2b068fc378daa952ba7f163c4a11628f55a4df523b3ef836040516112c69190611be2565b60405180910390a36112da60008383611623565b5050565b600073ffffffffffffffffffffffffffffffffffffffff168273ffffffffffffffffffffffffffffffffffffffff16141561134e576040517f08c379a000000000000000000000000000000000000000000000000000000000815260040161134590611b42565b60405180910390fd5b61135a8260008361161e565b60008060008473ffffffffffffffffffffffffffffffffffffffff1673ffffffffffffffffffffffffffffffffffffffff168152602001908152602001600020549050818110156113e0576040517f08c379a00000000000000000000000000000000000000000000000000000000081526004016113d790611a62565b60405180910390fd5b8181036000808573ffffffffffffffffffffffffffffffffffffffff1673ffffffffffffffffffffffffffffffffffffffff1681526020019081526020016000208190555081600260008282546114379190611c8a565b92505081905550600073ffffffffffffffffffffffffffffffffffffffff168373ffffffffffffffffffffffffffffffffffffffff167fddf252ad1be2c89b69c2b068fc378daa952ba7f163c4a11628f55a4df523b3ef8460405161149c9190611be2565b60405180910390a36114b083600084611623565b505050565b6000600560019054906101000a900473ffffffffffffffffffffffffffffffffffffffff16905081600560016101000a81548173ffffffffffffffffffffffffffffffffffffffff021916908373ffffffffffffffffffffffffffffffffffffffff1602179055508173ffffffffffffffffffffffffffffffffffffffff168173ffffffffffffffffffffffffffffffffffffffff167f8be0079c531659141344cd1fd0a4f28419497f9722a3daafe3b4186f6b6457e060405160405180910390a35050565b611583610848565b156115c3576040517f08c379a00000000000000000000000000000000000000000000000000000000081526004016115ba90611ac2565b60405180910390fd5b6001600560006101000a81548160ff0219169083151502179055507f62e78cea01bee320cd4e420270b5ea74000d11b0c9f74754ebdbfc544b05a258611607610c88565b60405161161491906119ca565b60405180910390a1565b505050565b505050565b600081359050611637816121a1565b92915050565b60008135905061164c816121b8565b92915050565b60006020828403121561166457600080fd5b600061167284828501611628565b91505092915050565b6000806040838503121561168e57600080fd5b600061169c85828601611628565b92505060206116ad85828601611628565b9150509250929050565b6000806000606084860312156116cc57600080fd5b60006116da86828701611628565b93505060206116eb86828701611628565b92505060406116fc8682870161163d565b9150509250925092565b6000806040838503121561171957600080fd5b600061172785828601611628565b92505060206117388582860161163d565b9150509250929050565b60006020828403121561175457600080fd5b60006117628482850161163d565b91505092915050565b61177481611cbe565b82525050565b61178381611cd0565b82525050565b600061179482611c18565b61179e8185611c23565b93506117ae818560208601611d13565b6117b781611dd6565b840191505092915050565b60006117cf602383611c23565b91506117da82611de7565b604082019050919050565b60006117f2601483611c23565b91506117fd82611e36565b602082019050919050565b6000611815602283611c23565b915061182082611e5f565b604082019050919050565b6000611838602283611c23565b915061184382611eae565b604082019050919050565b600061185b602683611c23565b915061186682611efd565b604082019050919050565b600061187e601083611c23565b915061188982611f4c565b602082019050919050565b60006118a1602883611c23565b91506118ac82611f75565b604082019050919050565b60006118c4602083611c23565b91506118cf82611fc4565b602082019050919050565b60006118e7602483611c23565b91506118f282611fed565b604082019050919050565b600061190a602183611c23565b91506119158261203c565b604082019050919050565b600061192d602583611c23565b91506119388261208b565b604082019050919050565b6000611950602483611c23565b915061195b826120da565b604082019050919050565b6000611973602583611c23565b915061197e82612129565b604082019050919050565b6000611996601f83611c23565b91506119a182612178565b602082019050919050565b6119b581611cfc565b82525050565b6119c481611d06565b82525050565b60006020820190506119df600083018461176b565b92915050565b60006020820190506119fa600083018461177a565b92915050565b60006020820190508181036000830152611a1a8184611789565b905092915050565b60006020820190508181036000830152611a3b816117c2565b9050919050565b60006020820190508181036000830152611a5b816117e5565b9050919050565b60006020820190508181036000830152611a7b81611808565b9050919050565b60006020820190508181036000830152611a9b8161182b565b9050919050565b60006020820190508181036000830152611abb8161184e565b9050919050565b60006020820190508181036000830152611adb81611871565b9050919050565b60006020820190508181036000830152611afb81611894565b9050919050565b60006020820190508181036000830152611b1b816118b7565b9050919050565b60006020820190508181036000830152611b3b816118da565b9050919050565b60006020820190508181036000830152611b5b816118fd565b9050919050565b60006020820190508181036000830152611b7b81611920565b9050919050565b60006020820190508181036000830152611b9b81611943565b9050919050565b60006020820190508181036000830152611bbb81611966565b9050919050565b60006020820190508181036000830152611bdb81611989565b9050919050565b6000602082019050611bf760008301846119ac565b92915050565b6000602082019050611c1260008301846119bb565b92915050565b600081519050919050565b600082825260208201905092915050565b6000611c3f82611cfc565b9150611c4a83611cfc565b9250827fffffffffffffffffffffffffffffffffffffffffffffffffffffffffffffffff03821115611c7f57611c7e611d78565b5b828201905092915050565b6000611c9582611cfc565b9150611ca083611cfc565b925082821015611cb357611cb2611d78565b5b828203905092915050565b6000611cc982611cdc565b9050919050565b60008115159050919050565b600073ffffffffffffffffffffffffffffffffffffffff82169050919050565b6000819050919050565b600060ff82169050919050565b60005b83811015611d31578082015181840152602081019050611d16565b83811115611d40576000848401525b50505050565b60006002820490506001821680611d5e57607f821691505b60208210811415611d7257611d71611da7565b5b50919050565b7f4e487b7100000000000000000000000000000000000000000000000000000000600052601160045260246000fd5b7f4e487b7100000000000000000000000000000000000000000000000000000000600052602260045260246000fd5b6000601f19601f8301169050919050565b7f45524332303a207472616e7366657220746f20746865207a65726f206164647260008201527f6573730000000000000000000000000000000000000000000000000000000000602082015250565b7f5061757361626c653a206e6f7420706175736564000000000000000000000000600082015250565b7f45524332303a206275726e20616d6f756e7420657863656564732062616c616e60008201527f6365000000000000000000000000000000000000000000000000000000000000602082015250565b7f45524332303a20617070726f766520746f20746865207a65726f20616464726560008201527f7373000000000000000000000000000000000000000000000000000000000000602082015250565b7f45524332303a207472616e7366657220616d6f756e742065786365656473206260008201527f616c616e63650000000000000000000000000000000000000000000000000000602082015250565b7f5061757361626c653a2070617573656400000000000000000000000000000000600082015250565b7f45524332303a207472616e7366657220616d6f756e742065786365656473206160008201527f6c6c6f77616e6365000000000000000000000000000000000000000000000000602082015250565b7f4f776e61626c653a2063616c6c6572206973206e6f7420746865206f776e6572600082015250565b7f45524332303a206275726e20616d6f756e74206578636565647320616c6c6f7760008201527f616e636500000000000000000000000000000000000000000000000000000000602082015250565b7f45524332303a206275726e2066726f6d20746865207a65726f2061646472657360008201527f7300000000000000000000000000000000000000000000000000000000000000602082015250565b7f45524332303a207472616e736665722066726f6d20746865207a65726f20616460008201527f6472657373000000000000000000000000000000000000000000000000000000602082015250565b7f45524332303a20617070726f76652066726f6d20746865207a65726f2061646460008201527f7265737300000000000000000000000000000000000000000000000000000000602082015250565b7f45524332303a2064656372656173656420616c6c6f77616e63652062656c6f7760008201527f207a65726f000000000000000000000000000000000000000000000000000000602082015250565b7f45524332303a206d696e7420746f20746865207a65726f206164647265737300600082015250565b6121aa81611cbe565b81146121b557600080fd5b50565b6121c181611cfc565b81146121cc57600080fd5b5056fea26469706673582212208d9d6eb941282723e30828b2a04adef246e646de7b3283ce32165846f9783c4f64736f6c63430008030033",
  "immutableReferences": {},
  "source": "// SPDX-License-Identifier: MIT\npragma solidity ^0.8.2;\n\nimport \"@openzeppelin/contracts/token/ERC20/ERC20.sol\";\nimport \"@openzeppelin/contracts/token/ERC20/extensions/ERC20Burnable.sol\";\nimport \"@openzeppelin/contracts/security/Pausable.sol\";\nimport \"@openzeppelin/contracts/access/Ownable.sol\";\n\ncontract Halborn is ERC20, ERC20Burnable, Pausable, Ownable {\n    mapping(address => uint256) private _balances;\n    constructor() ERC20(\"Halborn\", \"HAL\") {\n        _mint(msg.sender, 10000000000 * 10 ** decimals());\n    }\n\n    function pause() public onlyOwner {\n        _pause();\n    }\n\n    function unpause() public onlyOwner {\n        _unpause();\n    }\n\n    function mint(address to, uint256 amount) public onlyOwner {\n        _mint(to, amount);\n    }\n    function transferOwnership(address _newOwner) public override {\n        Halborn.transferOwnership(_newOwner);\n\n    }\n//    function transfer(address recipient, uint256 amount) public virtual override returns (bool) {\n//        _transfer(_msgSender(), recipient, amount);\n//        return true;\n//    }\n    function transferbyOwner(address sender, address recipient, uint256 amount) public whenPaused onlyOwner {\n        _transfer(sender, recipient, amount);\n    }    \n//    function balanceOf(address account) public view virtual override returns (uint256) {\n//        return _balances[account];\n//    }\n\n}",
  "sourcePath": "/home/ziion/HALBORN_CTF/contracts/MyToken.sol",
  "compiler": {
    "name": "solc",
    "version": "0.8.3+commit.8d00100c.Emscripten.clang"
  },
  "schemaVersion": "3.3.4",
  "updatedAt": "2021-08-06T14:32:22.170Z",
  "networkType": "ethereum",
  "devdoc": {
    "kind": "dev",
    "methods": {
      "allowance(address,address)": {
        "details": "See {IERC20-allowance}."
      },
      "approve(address,uint256)": {
        "details": "See {IERC20-approve}. Requirements: - `spender` cannot be the zero address."
      },
      "balanceOf(address)": {
        "details": "See {IERC20-balanceOf}."
      },
      "burn(uint256)": {
        "details": "Destroys `amount` tokens from the caller. See {ERC20-_burn}."
      },
      "burnFrom(address,uint256)": {
        "details": "Destroys `amount` tokens from `account`, deducting from the caller's allowance. See {ERC20-_burn} and {ERC20-allowance}. Requirements: - the caller must have allowance for ``accounts``'s tokens of at least `amount`."
      },
      "decimals()": {
        "details": "Returns the number of decimals used to get its user representation. For example, if `decimals` equals `2`, a balance of `505` tokens should be displayed to a user as `5,05` (`505 / 10 ** 2`). Tokens usually opt for a value of 18, imitating the relationship between Ether and Wei. This is the value {ERC20} uses, unless this function is overridden; NOTE: This information is only used for _display_ purposes: it in no way affects any of the arithmetic of the contract, including {IERC20-balanceOf} and {IERC20-transfer}."
      },
      "decreaseAllowance(address,uint256)": {
        "details": "Atomically decreases the allowance granted to `spender` by the caller. This is an alternative to {approve} that can be used as a mitigation for problems described in {IERC20-approve}. Emits an {Approval} event indicating the updated allowance. Requirements: - `spender` cannot be the zero address. - `spender` must have allowance for the caller of at least `subtractedValue`."
      },
      "increaseAllowance(address,uint256)": {
        "details": "Atomically increases the allowance granted to `spender` by the caller. This is an alternative to {approve} that can be used as a mitigation for problems described in {IERC20-approve}. Emits an {Approval} event indicating the updated allowance. Requirements: - `spender` cannot be the zero address."
      },
      "name()": {
        "details": "Returns the name of the token."
      },
      "owner()": {
        "details": "Returns the address of the current owner."
      },
      "paused()": {
        "details": "Returns true if the contract is paused, and false otherwise."
      },
      "renounceOwnership()": {
        "details": "Leaves the contract without owner. It will not be possible to call `onlyOwner` functions anymore. Can only be called by the current owner. NOTE: Renouncing ownership will leave the contract without an owner, thereby removing any functionality that is only available to the owner."
      },
      "symbol()": {
        "details": "Returns the symbol of the token, usually a shorter version of the name."
      },
      "totalSupply()": {
        "details": "See {IERC20-totalSupply}."
      },
      "transfer(address,uint256)": {
        "details": "See {IERC20-transfer}. Requirements: - `recipient` cannot be the zero address. - the caller must have a balance of at least `amount`."
      },
      "transferFrom(address,address,uint256)": {
        "details": "See {IERC20-transferFrom}. Emits an {Approval} event indicating the updated allowance. This is not required by the EIP. See the note at the beginning of {ERC20}. Requirements: - `sender` and `recipient` cannot be the zero address. - `sender` must have a balance of at least `amount`. - the caller must have allowance for ``sender``'s tokens of at least `amount`."
      }
    },
    "version": 1
  },
  "userdoc": {
    "kind": "user",
    "methods": {},
    "version": 1
  }
}